{
  "contractName": "ExchangePure",
  "abi": [
    {
      "constant": true,
      "inputs": [
        {
          "name": "",
          "type": "uint256"
        }
      ],
      "name": "fees",
      "outputs": [
        {
          "name": "",
          "type": "uint256"
        }
      ],
      "payable": false,
      "stateMutability": "view",
      "type": "function"
    },
    {
      "inputs": [],
      "payable": false,
      "stateMutability": "nonpayable",
      "type": "constructor"
    },
    {
      "anonymous": false,
      "inputs": [
        {
          "indexed": true,
          "name": "token",
          "type": "address"
        },
        {
          "indexed": true,
          "name": "user",
          "type": "address"
        },
        {
          "indexed": false,
          "name": "amount",
          "type": "uint256"
        },
        {
          "indexed": false,
          "name": "balance",
          "type": "uint256"
        }
      ],
      "name": "Deposit",
      "type": "event"
    },
    {
      "anonymous": false,
      "inputs": [
        {
          "indexed": true,
          "name": "token",
          "type": "address"
        },
        {
          "indexed": true,
          "name": "user",
          "type": "address"
        },
        {
          "indexed": false,
          "name": "amount",
          "type": "uint256"
        },
        {
          "indexed": false,
          "name": "balance",
          "type": "uint256"
        }
      ],
      "name": "Withdraw",
      "type": "event"
    },
    {
      "anonymous": false,
      "inputs": [
        {
          "indexed": true,
          "name": "user",
          "type": "address"
        },
        {
          "indexed": true,
          "name": "market",
          "type": "address"
        },
        {
          "indexed": true,
          "name": "id",
          "type": "uint64"
        },
        {
          "indexed": false,
          "name": "price",
          "type": "uint256"
        },
        {
          "indexed": false,
          "name": "amount",
          "type": "uint256"
        },
        {
          "indexed": false,
          "name": "timestamp",
          "type": "uint256"
        },
        {
          "indexed": false,
          "name": "sell",
          "type": "bool"
        }
      ],
      "name": "NewOrder",
      "type": "event"
    },
    {
      "anonymous": false,
      "inputs": [
        {
          "indexed": true,
          "name": "token",
          "type": "address"
        },
        {
          "indexed": false,
          "name": "price",
          "type": "uint256"
        }
      ],
      "name": "Ask",
      "type": "event"
    },
    {
      "anonymous": false,
      "inputs": [
        {
          "indexed": true,
          "name": "token",
          "type": "address"
        },
        {
          "indexed": false,
          "name": "price",
          "type": "uint256"
        }
      ],
      "name": "Bid",
      "type": "event"
    },
    {
      "anonymous": false,
      "inputs": [
        {
          "indexed": true,
          "name": "token",
          "type": "address"
        },
        {
          "indexed": true,
          "name": "bid",
          "type": "uint64"
        },
        {
          "indexed": true,
          "name": "ask",
          "type": "uint64"
        },
        {
          "indexed": false,
          "name": "price",
          "type": "uint256"
        },
        {
          "indexed": false,
          "name": "amount",
          "type": "uint256"
        },
        {
          "indexed": false,
          "name": "timestamp",
          "type": "uint256"
        },
        {
          "indexed": false,
          "name": "sell",
          "type": "bool"
        }
      ],
      "name": "Trade",
      "type": "event"
    },
    {
      "constant": false,
      "inputs": [
        {
          "name": "_feeCollector",
          "type": "address"
        }
      ],
      "name": "changeFeeCollector",
      "outputs": [],
      "payable": false,
      "stateMutability": "nonpayable",
      "type": "function"
    },
    {
      "constant": false,
      "inputs": [
        {
          "name": "_type",
          "type": "uint256"
        },
        {
          "name": "_value",
          "type": "uint256"
        }
      ],
      "name": "changeFee",
      "outputs": [],
      "payable": false,
      "stateMutability": "nonpayable",
      "type": "function"
    },
    {
      "constant": false,
      "inputs": [
        {
          "name": "_owner",
          "type": "address"
        }
      ],
      "name": "changeOwner",
      "outputs": [],
      "payable": false,
      "stateMutability": "nonpayable",
      "type": "function"
    },
    {
      "constant": false,
      "inputs": [
        {
          "name": "_token",
          "type": "address"
        },
        {
          "name": "_amount",
          "type": "uint256"
        }
      ],
      "name": "deposit",
      "outputs": [],
      "payable": true,
      "stateMutability": "payable",
      "type": "function"
    },
    {
      "constant": false,
      "inputs": [
        {
          "name": "_token",
          "type": "address"
        },
        {
          "name": "_amount",
          "type": "uint256"
        }
      ],
      "name": "withdraw",
      "outputs": [],
      "payable": false,
      "stateMutability": "nonpayable",
      "type": "function"
    },
    {
      "constant": true,
      "inputs": [
        {
          "name": "_token",
          "type": "address"
        },
        {
          "name": "_user",
          "type": "address"
        }
      ],
      "name": "getBalance",
      "outputs": [
        {
          "name": "available",
          "type": "uint256"
        },
        {
          "name": "reserved",
          "type": "uint256"
        }
      ],
      "payable": false,
      "stateMutability": "view",
      "type": "function"
    },
    {
      "constant": false,
      "inputs": [
        {
          "name": "_marketAddress",
          "type": "address"
        },
        {
          "name": "_amount",
          "type": "uint256"
        },
        {
          "name": "_price",
          "type": "uint256"
        },
        {
          "name": "_sell",
          "type": "bool"
        }
      ],
      "name": "createOrder",
      "outputs": [],
      "payable": false,
      "stateMutability": "nonpayable",
      "type": "function"
    },
    {
      "constant": false,
      "inputs": [
        {
          "name": "_marketAddress",
          "type": "address"
        },
        {
          "name": "_orderId",
          "type": "uint64"
        }
      ],
      "name": "cancelOrder",
      "outputs": [],
      "payable": false,
      "stateMutability": "nonpayable",
      "type": "function"
    },
    {
      "constant": true,
      "inputs": [
        {
          "name": "_marketAddress",
          "type": "address"
        },
        {
          "name": "_orderId",
          "type": "uint64"
        }
      ],
      "name": "getOrder",
      "outputs": [
        {
          "name": "user",
          "type": "address"
        },
        {
          "name": "amount",
          "type": "uint256"
        },
        {
          "name": "price",
          "type": "uint256"
        },
        {
          "name": "next",
          "type": "uint64"
        },
        {
          "name": "prev",
          "type": "uint64"
        },
        {
          "name": "sell",
          "type": "bool"
        }
      ],
      "payable": false,
      "stateMutability": "view",
      "type": "function"
    },
    {
      "constant": true,
      "inputs": [
        {
          "name": "_marketAddress",
          "type": "address"
        }
      ],
      "name": "getMarketInfo",
      "outputs": [
        {
          "name": "bid",
          "type": "uint64"
        },
        {
          "name": "ask",
          "type": "uint64"
        }
      ],
      "payable": false,
      "stateMutability": "view",
      "type": "function"
    }
  ],
  "bytecode": "0x608060405234801561001057600080fd5b50600080547fffffffff0000000000000000000000000000000000000000ffffffffffffffff163368010000000000000000810291909117825560018054600160a060020a031916909117905561308890819061006d90396000f3006080604052600436106100955763ffffffff60e060020a6000350416630cf85bcc811461009a57806347e7ef24146100e15780634acc79ed146100fa5780639245290d146101245780639956b43614610145578063a4d91c9a14610171578063a6f9dae1146101e6578063d4ba166614610207578063d4fac45d14610234578063e3ca2d6514610274578063f3fef3a31461028f575b600080fd5b3480156100a657600080fd5b506100bb600160a060020a03600435166102b3565b604080516001604060020a03938416815291909216602082015281519081900390910190f35b6100f8600160a060020a0360043516602435610333565b005b34801561010657600080fd5b50610112600435610501565b60408051918252519081900360200190f35b34801561013057600080fd5b506100f8600160a060020a0360043516610513565b34801561015157600080fd5b506100f8600160a060020a03600435166024356044356064351515610560565b34801561017d57600080fd5b5061019e600160a060020a03600435166001604060020a0360243516610c26565b60408051600160a060020a0390971687526020870195909552858501939093526001604060020a039182166060860152166080840152151560a0830152519081900360c00190f35b3480156101f257600080fd5b506100f8600160a060020a0360043516610cf0565b34801561021357600080fd5b506100f8600160a060020a03600435166001604060020a0360243516610d4f565b34801561024057600080fd5b5061025b600160a060020a0360043581169060243516610f0a565b6040805192835260208301919091528051918290030190f35b34801561028057600080fd5b506100f8600435602435610f3d565b34801561029b57600080fd5b506100f8600160a060020a0360043516602435610f68565b6000806102be612f78565b600160a060020a03841615156102d357600080fd5b505050600160a060020a0316600090815260046020908152604091829020825160808101845260018201546001604060020a03908116606083019081528252600390920154808316938201849052604060020a9004909116920182905291565b600160a060020a038216151561039e5734811461034f57600080fd5b33600090815260008051602061301d833981519152602052604090205461037c903463ffffffff6111e116565b33600090815260008051602061301d833981519152602052604090205561049e565b34156103a957600080fd5b600160a060020a03821660009081526002602090815260408083203384529091529020546103dd908263ffffffff6111e116565b600160a060020a0383166000818152600260209081526040808320338085529083528184209590955580517f23b872dd0000000000000000000000000000000000000000000000000000000081526004810195909552306024860152604485018690525192936323b872dd9360648083019491928390030190829087803b15801561046757600080fd5b505af115801561047b573d6000803e3d6000fd5b505050506040513d602081101561049157600080fd5b5051151561049e57600080fd5b600160a060020a038216600081815260026020908152604080832033808552908352928190205481518681529283015280519293927fdcbc1c05240f31ff3ad067ef1ee35ce4997762752e3a095284754544f4c709d79281900390910190a35050565b60036020526000908152604090205481565b600054604060020a9004600160a060020a0316331461053157600080fd5b6001805473ffffffffffffffffffffffffffffffffffffffff1916600160a060020a0392909216919091179055565b600061056a612fa0565b60008080808080600160a060020a038c16151561058657600080fd5b600160a060020a038c166000908152600460209081526040808320338b52918a018e905289018c90528a15801560608b01524260808b0152825467ffffffffffffffff19811660016001604060020a03928316019182161790935590995090965061068b57600160a060020a038c16600090815260026020908152604080832033845290915290205461061f908c63ffffffff6111fe16565b600160a060020a038d166000908152600260209081526040808320338452909152902090815560010154610653908c6111e1565b600160a060020a038d1660009081526002602090815260408083203384529091529020600101556106868c898989611215565b61073c565b6106b3670de0b6b3a76400006106a78c8e63ffffffff6113e916565b9063ffffffff61141716565b33600090815260008051602061301d83398151915260205260409020549095506106e3908663ffffffff6111fe16565b33600090815260008051602061301d833981519152602052604090209081556001015461071090866111e1565b33600090815260008051602061301d833981519152602052604090206001015561073c8c89898961143a565b8760010173__RedBlackTree__________________________63eb9d50e4909189604001516040518363ffffffff1660e060020a028152600401808381526020018281526020019250505060206040518083038186803b15801561079f57600080fd5b505af41580156107b3573d6000803e3d6000fd5b505050506040513d60208110156107c957600080fd5b50516001604060020a03808216600090815260208b815260408083206005810154604060020a810486168552828520951684529220908b0151939750909550909350915015610c18576001604060020a038416156108ea5760028301548a1061088c57600580840180546001604060020a0380821660a08c015287811660c08c0152891667ffffffffffffffff1990911681179091559082018054604060020a9092026fffffffffffffffff0000000000000000199092169190911790556108e5565b6001604060020a0380851660a089015260058085018054604060020a808204851660c08d0152938a169384026fffffffffffffffff0000000000000000199091161790558301805467ffffffffffffffff191690911790555b6108f9565b600060a0880181905260c08801525b86606001518015610915575060038801546001604060020a0316155b8061094f57508660600151801561094f575060038801546001604060020a0316600090815260208990526040908190206002015490880151105b156109b4576003880180546001604060020a03881667ffffffffffffffff19909116179055604080518b81529051600160a060020a038e16917fe684a55f31b79eca403df938249029212a5925ec6be8012e099b45bc1019e5d2919081900360200190a25b86606001511580156109d857506003880154604060020a90046001604060020a0316155b80610a1a57508660600151158015610a1a57506003880154604060020a90046001604060020a0316600090815260208990526040908190206002015490880151115b15610a8d576003880180546001604060020a038816604060020a026fffffffffffffffff000000000000000019909116179055604080518b81529051600160a060020a038e16917f32eb218d63024a6bd54a3e6467c1545c355c44c2e1c17940b1a0ed1555ffeffe919081900360200190a25b6040870151610aaa9060018a01908690899063ffffffff61163f16565b86886000016000886001604060020a03166001604060020a0316815260200190815260200160002060008201518160000160006101000a815481600160a060020a030219169083600160a060020a03160217905550602082015181600101556040820151816002015560608201518160030160006101000a81548160ff0219169083151502179055506080820151816004015560a08201518160050160006101000a8154816001604060020a0302191690836001604060020a0316021790555060c08201518160050160086101000a8154816001604060020a0302191690836001604060020a03160217905550905050856001604060020a03168c600160a060020a031633600160a060020a03167ff5a4026cc8202624d31de8fb5fd91611f38f46e72d1e39dfae4852c53059fcde8a604001518b60200151428d60600151604051808581526020018481526020018381526020018215151515815260200194505050505060405180910390a45b505050505050505050505050565b600080600080600080610c37612fa0565b600160a060020a0389161515610c4c57600080fd5b50505050600160a060020a0394851660009081526004602081815260408084206001604060020a039889168552825292839020835160e0810185528154909916808a526001820154928a018390526002820154948a01859052600382015460ff16151560608b018190529382015460808b015260059091015480891660a08b01819052604060020a90910490981660c0909901899052989097929695509193509150565b600054604060020a9004600160a060020a03163314610d0e57600080fd5b60008054600160a060020a03909216604060020a027fffffffff0000000000000000000000000000000000000000ffffffffffffffff909216919091179055565b60008080600160a060020a0385161515610d6857600080fd5b600160a060020a0380861660009081526004602090815260408083206001604060020a03891684529182905290912080549195509350163314610daa57600080fd5b600382015460ff1615610e53576001820154600160a060020a0386166000908152600260209081526040808320338452909152902054610def9163ffffffff6111e116565b600160a060020a03861660009081526002602090815260408083203384529091529020908155600183810154910154610e27916111fe565b600160a060020a0386166000908152600260209081526040808320338452909152902060010155610ef8565b610e7a670de0b6b3a76400006106a7846001015485600201546113e990919063ffffffff16565b33600090815260008051602061301d8339815191526020526040902054909150610eaa908263ffffffff6111e116565b33600090815260008051602061301d8339815191526020526040902090815560010154610ed790826111fe565b33600090815260008051602061301d83398151915260205260409020600101555b610f0285856117e7565b505050505050565b600160a060020a039182166000908152600260209081526040808320939094168252919091522080546001909101549091565b66b1a2bc2ec50000811115610f56575066b1a2bc2ec500005b60009182526003602052604090912055565b600160a060020a0382166000908152600260209081526040808320338452909152812054821115610f9857600080fd5b600160a060020a0383166000908152600260209081526040808320338452909152902054610fcc908363ffffffff6111fe16565b600160a060020a038416600090815260026020818152604080842033855290915282209290925561102891670de0b6b3a7640000916106a79186916003915b8152602001908152602001600020546113e990919063ffffffff16565b600160a060020a03808516600090815260026020908152604080832060015490941683529290522054909150611064908263ffffffff6111e116565b600160a060020a0380851660008181526002602090815260408083206001549095168352939052919091209190915515156110d457336108fc6110ad848463ffffffff6111fe16565b6040518115909202916000818181858888f1935050505015156110cf57600080fd5b61117d565b600160a060020a03831663a9059cbb336110f4858563ffffffff6111fe16565b6040518363ffffffff1660e060020a0281526004018083600160a060020a0316600160a060020a0316815260200182815260200192505050602060405180830381600087803b15801561114657600080fd5b505af115801561115a573d6000803e3d6000fd5b505050506040513d602081101561117057600080fd5b5051151561117d57600080fd5b600160a060020a038316600081815260026020908152604080832033808552908352928190205481518781529283015280519293927ff341246adaac6f497bc2a656f546ab9e182111d630394f0c57c710a59a2cb5679281900390910190a3505050565b6000828201838110156111f357600080fd5b8091505b5092915050565b6000808383111561120e57600080fd5b5050900390565b600080600080611223612fa0565b6003880154604060020a90046001604060020a031694505b6001604060020a038516158015906112565750602087015115155b801561128257506001604060020a03851660009081526020899052604090819020600201549088015111155b156113de576001604060020a038516600090815260208981526040909120600181015491890151909550106112bd57836001015492506112c5565b866020015192505b6112e8670de0b6b3a76400006106a78660020154866113e990919063ffffffff16565b6020880151909250611300908463ffffffff6111fe16565b6020880152600184015461131a908463ffffffff6111fe16565b60018501558354875161133e916000918c91600160a060020a031690868885611aac565b846001604060020a0316866001604060020a03168a600160a060020a03167f55b32d6233426fc7f87c6cbb2710d14d738b3277d7c879d5ca2f2aa19b508d80876002015487428d60600151604051808581526020018481526020018381526020018215151515815260200194505050505060405180910390a46001840154156113c6576113de565b6113d089866117e7565b90508060c00151945061123b565b505050505050505050565b6000808315156113fc57600091506111f7565b5082820282848281151561140c57fe5b04146111f357600080fd5b60008080831161142657600080fd5b828481151561143157fe5b04949350505050565b600080600080600061144a612fa0565b60038901546001604060020a031695505b6001604060020a038616158015906114765750602088015115155b80156114a257506001604060020a038616600090815260208a9052604090819020600201549089015110155b15611633576001604060020a038616600090815260208a815260409091206001810154918a0151909650106114dd57846001015493506114e5565b876020015193505b611508670de0b6b3a76400006106a78760020154876113e990919063ffffffff16565b925061153d83611531670de0b6b3a76400006106a78c60400151896113e990919063ffffffff16565b9063ffffffff6111fe16565b6020890151909250611555908563ffffffff6111fe16565b6020890152600185015461156f908563ffffffff6111fe16565b600186015584548851611593918c91600091600160a060020a031690888888611aac565b856001604060020a0316876001604060020a03168b600160a060020a03167f55b32d6233426fc7f87c6cbb2710d14d738b3277d7c879d5ca2f2aa19b508d80886002015488428e60600151604051808581526020018481526020018381526020018215151515815260200194505050505060405180910390a460018501541561161b57611633565b6116258a876117e7565b90508060a00151955061145b565b50505050505050505050565b611647612fdc565b608081018290526001604060020a038416602082018190526001825215611718576001604060020a03841660009081526001808701602052604090912001548210156116d4576001604060020a03808516600090815260018701602052604090208054918516604860020a0270ffffffffffffffff00000000000000000019909216919091179055611713565b6001604060020a03808516600090815260018701602052604090208054918516608860020a0260008051602061303d8339815191529092169190911790555b611733565b845467ffffffffffffffff19166001604060020a0384161785555b6001604060020a0380841660009081526001808801602090815260409283902085518154928701519487015160608801518716608860020a0260008051602061303d833981519152918816604860020a0270ffffffffffffffff00000000000000000019979098166101000268ffffffffffffffff001993151560ff1990961695909517929092169390931794909416949094171691909117825560808301519101556117e08584611d75565b5050505050565b6117ef612fa0565b60006117f9612fa0565b5050600160a060020a0380841660009081526004602081815260408084206001604060020a0380891680875282855295839020835160e0810185528154909816885260018101549488019490945260028401549287019290925260038084015460ff161515606088015293830154608087015260059092015480821660a0870152604060020a90819004821660c087015292820154919493929091041614156119205760c08101516003830180546fffffffffffffffff00000000000000001916604060020a6001604060020a03909316928302179055600090815260208381526040918290206002015482519081529151600160a060020a038816927f32eb218d63024a6bd54a3e6467c1545c355c44c2e1c17940b1a0ed1555ffeffe92908290030190a25b60038201546001604060020a03858116911614156119ae5760a081015160038301805467ffffffffffffffff19166001604060020a039092169182179055600090815260208381526040918290206002015482519081529151600160a060020a038816927fe684a55f31b79eca403df938249029212a5925ec6be8012e099b45bc1019e5d292908290030190a25b60c08101805160a0830180516001604060020a03908116600090815260208790526040808220600590810180546fffffffffffffffff00000000000000001916604060020a9786169790970296909617909555925194518216815291909120909101805467ffffffffffffffff191692909116919091179055611a346001830185611fc0565b6001604060020a0384166000908152602083905260408120805473ffffffffffffffffffffffffffffffffffffffff19168155600181018290556002810182905560038101805460ff19169055600481019190915560050180546fffffffffffffffffffffffffffffffff1916905591505092915050565b600080611ac8670de0b6b3a76400006106a7866003858061100b565b9150611ae5670de0b6b3a76400006106a78760036000600161100b565b600160a060020a03808b166000908152600260209081526040808320938c1683529290522060010154909150611b21908663ffffffff6111fe16565b600160a060020a03808b166000908152600260209081526040808320938c1683529290522060010155611b8f611b5d858463ffffffff6111fe16565b600160a060020a03808b166000908152600260209081526040808320938d16835292905220549063ffffffff6111e116565b600160a060020a0389811660009081526002602090815260408083208c851684529091528082209390935590881681522060010154611bd490849061153190876111fe565b600160a060020a03808a166000908152600260209081526040808320938b1683529290522060010155611c42611c10868363ffffffff6111fe16565b600160a060020a03808c166000908152600260209081526040808320938c16835292905220549063ffffffff6111e116565b600160a060020a03808b1660009081526002602081815260408084208c861680865290835281852096909655938d16835290815282822093825292909252902054611c93908463ffffffff6111e116565b600160a060020a03808a1660009081526002602081815260408084208c861685528252808420959095558d841683529081528382206001549093168252919091522054611ce6908263ffffffff6111e116565b600160a060020a03808b1660009081526002602081815260408084206001805487168652908352818520969096558d8516845291815281832094549093168252929091522054611d3c908363ffffffff6111e116565b600160a060020a039889166000908152600260209081526040808320600154909c1683529a905298909820979097555050505050505050565b6001604060020a03808216600090815260018401602052604081205461010090049091169080821515611dc9576001604060020a03841660009081526001860160205260409020805460ff191690556117e0565b6001604060020a038316600090815260018601602052604090205460ff16156117e057611df685856123b1565b9150611e0285856123e4565b90506001604060020a03811615801590611e3657506001604060020a038116600090815260018601602052604090205460ff165b15611e90576001604060020a03808416600090815260018088016020526040808320805460ff19908116909155858516845281842080548216905593861683529091208054909216179055611e8b8583611d75565b6117e0565b6001604060020a038381166000908152600187016020526040902054608860020a90048116908516148015611eea57506001604060020a038281166000908152600187016020526040902054604860020a90048116908416145b15611f2557611ef985846124a1565b6001604060020a039384166000908152600186016020526040902054604860020a900490931692611fb6565b6001604060020a038381166000908152600187016020526040902054604860020a90048116908516148015611f7f57506001604060020a038281166000908152600187016020526040902054608860020a90048116908416145b15611fb657611f8e85846126d4565b6001604060020a039384166000908152600186016020526040902054608860020a9004909316925b6117e08585612907565b6001604060020a0380821660009081526001840160205260408120549091608860020a8204811691604860020a9004168280831580159061200957506001604060020a03831615155b1561219d578394505b6001604060020a038086166000908152600189016020526040902054604860020a90041615612067576001604060020a039485166000908152600188016020526040902054604860020a900490941693612012565b6001604060020a0380861660009081526001890160205260409020546101009004811692508616821461211b576001604060020a03858116600081815260018a0160205260408082208054878616845291909220805470ffffffffffffffff0000000000000000001916608860020a928390048616604860020a02178155825460008051602061303d83398151915216948916909102939093179055815468ffffffffffffffff0019166101009091021790555b6001604060020a0385811660009081526001890160205260409020805470ffffffffffffffff0000000000000000001916604860020a92861692830217905515612198576001604060020a038084166000908152600189016020526040902080549187166101000268ffffffffffffffff00199092169190911790555b6121b8565b6001604060020a038416156121b4578394506121b8565b8294505b506001604060020a0385811660009081526001880160205260408082205487841683529120805468ffffffffffffffff001916610100928390049093169182029290921790915580156122be576001604060020a038181166000908152600189016020526040902054604860020a90048116908716141561227a576001604060020a03808216600090815260018901602052604090208054918716604860020a0270ffffffffffffffff000000000000000000199092169190911790556122b9565b6001604060020a03808216600090815260018901602052604090208054918716608860020a0260008051602061303d8339815191529092169190911790555b6122d9565b865467ffffffffffffffff19166001604060020a0386161787555b6001604060020a038616600090815260018801602052604090205460ff161515612351576001604060020a038516600090815260018801602052604090205460ff1615612347576001604060020a03851660009081526001880160205260409020805460ff19169055612351565b61235187866129d8565b5050506001604060020a03909216600090815260019384016020526040808220805478ffffffffffffffffffffffffffffffffffffffffffffffffff19908116825590860183905582805290822080549091168155909301929092555050565b6001604060020a038082166000908152600184016020526040808220546101009081900484168352912054041692915050565b6000806123f184846123b1565b90506001604060020a038116151561240c57600091506111f7565b6001604060020a03808216600090815260018601602052604080822054868416835291205461010090048216604860020a9091049091161415612474576001604060020a038082166000908152600186016020526040902054608860020a90041691506111f7565b6001604060020a038082166000908152600186016020526040902054604860020a90041691505092915050565b6001604060020a03818116600090815260018401602052604080822054608860020a8104841680845291909220805468ffffffffffffffff001916610100938490049094169283029390931790925580156125af576001604060020a038181166000908152600186016020526040902054604860020a90048116908416141561256b576001604060020a03808216600090815260018601602052604090208054918416604860020a0270ffffffffffffffff000000000000000000199092169190911790556125aa565b6001604060020a03808216600090815260018601602052604090208054918416608860020a0260008051602061303d8339815191529092169190911790555b6125ca565b835467ffffffffffffffff19166001604060020a0383161784555b6001604060020a03828116600081815260018701602052604080822080548886168452918320805460008051602061303d83398151915216604860020a938490048716608860020a0217905592909152905404161561266b576001604060020a03808316600090815260018601602052604080822054604860020a900483168252902080549185166101000268ffffffffffffffff00199092169190911790555b506001604060020a0391821660008181526001949094016020526040808520805468ffffffffffffffff00191661010094909516938402949094179093559083529120805470ffffffffffffffff0000000000000000001916604860020a909202919091179055565b6001604060020a03818116600090815260018401602052604080822054604860020a8104841680845291909220805468ffffffffffffffff001916610100938490049094169283029390931790925580156127e2576001604060020a038181166000908152600186016020526040902054604860020a90048116908416141561279e576001604060020a03808216600090815260018601602052604090208054918416604860020a0270ffffffffffffffff000000000000000000199092169190911790556127dd565b6001604060020a03808216600090815260018601602052604090208054918416608860020a0260008051602061303d8339815191529092169190911790555b6127fd565b835467ffffffffffffffff19166001604060020a0383161784555b6001604060020a03828116600081815260018701602052604080822080548886168452918320805470ffffffffffffffff0000000000000000001916608860020a938490048716604860020a021790559290915290540416156128a2576001604060020a03808316600090815260018601602052604080822054608860020a900483168252902080549185166101000268ffffffffffffffff00199092169190911790555b506001604060020a0391821660008181526001949094016020526040808520805468ffffffffffffffff00191661010094909516938402949094179093559083529120805460008051602061303d83398151915216608860020a909202919091179055565b6001604060020a03808216600090815260018401602052604081205461010090049091169061293684846123b1565b6001604060020a03808416600081815260018089016020526040808320805460ff19908116825586881685529184208054909216909217905591905254919250848116604860020a909204161480156129b457506001604060020a038181166000908152600186016020526040902054604860020a90048116908316145b156129c8576129c384826126d4565b6129d2565b6129d284826124a1565b50505050565b6001604060020a03808216600090815260018401602052604081205461010090049091169081156129d257612a0d8484612aa6565b6001604060020a038116600090815260018601602052604090205490915060ff1615612a9c576001604060020a03828116600081815260018781016020526040808320805460ff1990811690931781558686168452908320805490921690915591905254604860020a900481169084161415612a9257612a8d84836124a1565b612a9c565b612a9c84836126d4565b6129d28484612b3a565b6001604060020a03808216600081815260018501602052604080822054610100900484168083529082205491939092604860020a909204161415612b0f576001604060020a038082166000908152600186016020526040902054608860020a90041691506111f7565b6001604060020a038082166000908152600186016020526040902054604860020a90041691506111f7565b600080600080612b4a8686612aa6565b6001604060020a03808716600090815260018901602052604080822054838516835281832054610100909104841680845291909220549397509550604860020a810482169450608860020a900416915060ff16158015612bc557506001604060020a038416600090815260018701602052604090205460ff16155b8015612bec57506001604060020a038216600090815260018701602052604090205460ff16155b8015612c1357506001604060020a038116600090815260018701602052604090205460ff16155b15612c4e576001604060020a038416600090815260018781016020526040909120805460ff19169091179055612c4986846129d8565b610f02565b6001604060020a038316600090815260018701602052604090205460ff168015612c9357506001604060020a038416600090815260018701602052604090205460ff16155b8015612cba57506001604060020a038216600090815260018701602052604090205460ff16155b8015612ce157506001604060020a038116600090815260018701602052604090205460ff16155b15612d24576001604060020a03808516600090815260018881016020526040808320805460ff199081169093179055928616825291902080549091169055610f02565b6001604060020a038416600090815260018701602052604090205460ff161515612ec9576001604060020a038381166000908152600188016020526040902054604860020a90048116908616148015612d9857506001604060020a038116600090815260018701602052604090205460ff16155b8015612dbe57506001604060020a038216600090815260018701602052604090205460ff165b15612e0b576001604060020a03808516600090815260018881016020526040808320805460ff199081169093179055928516825291902080549091169055612e0686856126d4565b612ec9565b6001604060020a038381166000908152600188016020526040902054608860020a90048116908616148015612e5b57506001604060020a038216600090815260018701602052604090205460ff16155b8015612e8157506001604060020a038116600090815260018701602052604090205460ff165b15612ec9576001604060020a03808516600090815260018881016020526040808320805460ff199081169093179055928416825291902080549091169055612ec986856124a1565b6001604060020a03808416600081815260018901602052604080822080548986168452918320805460ff909316151560ff199384161790559290915281541690819055868216604860020a9091049091161415612f4c576001604060020a03811660009081526001870160205260409020805460ff19169055612c4986846124a1565b6001604060020a03821660009081526001870160205260409020805460ff19169055610f0286846126d4565b606060405190810160405280612f8c61300a565b815260006020820181905260409091015290565b6040805160e081018252600080825260208201819052918101829052606081018290526080810182905260a0810182905260c081019190915290565b6040805160a08101825260008082526020820181905291810182905260608101829052608081019190915290565b604080516020810190915260008152905600ac33ff75c19e70fe83507db0d683fd3465c996598dc972688b7ace676c89077bffffffffffffff0000000000000000ffffffffffffffffffffffffffffffffffa165627a7a72305820e967fcffcce79217481c034fc67c7bbc5c68021d8383b2bd9530930ab43827430029",
  "source": "pragma solidity ^0.4.22;\n\nimport './lib/ERC20.sol';\nimport './lib/SafeMath.sol';\nimport './lib/RedBlackTree.sol';\n\ncontract ExchangePure {\n\tusing SafeMath for uint;\n\tusing RedBlackTree for RedBlackTree.Tree;\n\n\tenum Fee {\n\t\tMaker,\n\t\tTaker,\n\t\tWithdrawal\n\t}\n\n\tstruct Balance {\n\t\tuint available;\n\t\tuint reserved;\n\t}\n\n\tstruct Order {\n    address user;\n    uint amount;\n    uint price;\n    bool sell;\n    uint timestamp;\n    uint64 next;\n    uint64 prev;\n  }\n\n  struct Market {\n  \tmapping (uint64 => Order) orderbook;\n  \tRedBlackTree.Tree priceTree;\n    uint64 bid;\n    uint64 ask;\n  }\n\n  uint64 private lastId;\n  address private owner;\n  address private feeCollector;\n  mapping (address => mapping (address => Balance)) private balances;\n  mapping (uint => uint) public fees;\n  mapping (address => Market) private markets;\n\n  event Deposit(address indexed token, address indexed user, uint amount, uint balance);\n\tevent Withdraw(address indexed token, address indexed user, uint amount, uint balance);\n\tevent NewOrder(address indexed user, address indexed market, uint64 indexed id, uint price, uint amount, uint timestamp, bool sell);\n\tevent Ask(address indexed token, uint price);\n  event Bid(address indexed token, uint price);\n  event Trade(address indexed token, uint64 indexed bid, uint64 indexed ask, uint price, uint amount, uint timestamp, bool sell);\n\n\tmodifier ownerOnly {\n\t\trequire(msg.sender == owner);\n\t\t_;\n\t}\n\n\tconstructor() public {\n\t\towner = msg.sender;\n\t\tfeeCollector = msg.sender;\n\t}\n\n\tfunction changeFeeCollector(address _feeCollector) public ownerOnly {\n\t\tfeeCollector = _feeCollector;\n\t}\n\n\tfunction changeFee(uint _type, uint _value) public {\n\t\tif (_value > 50 finney) _value = 50 finney;\n\t\tfees[_type] = _value;\n\t}\n\n\tfunction changeOwner(address _owner) public ownerOnly {\n\t\towner = _owner;\n\t}\n\n\tfunction deposit(address _token, uint _amount) public payable {\n\t\tif (_token == 0) {\n\t\t\trequire(msg.value == _amount);\n\t\t\tbalances[0][msg.sender].available = balances[0][msg.sender].available.add(msg.value);\n    } else {\n\t\t\trequire(msg.value == 0);\n\t\t\tbalances[_token][msg.sender].available = balances[_token][msg.sender].available.add(_amount);\n\t\t\trequire(ERC20(_token).transferFrom(msg.sender, this, _amount));\n    }\n    emit Deposit(_token, msg.sender, _amount, balances[_token][msg.sender].available);\n\t}\n\n\tfunction withdraw(address _token, uint _amount) public {\n\t\trequire(balances[_token][msg.sender].available >= _amount);\n    balances[_token][msg.sender].available = balances[_token][msg.sender].available.sub(_amount);\n    uint fee = (fees[uint(Fee.Withdrawal)].mul(_amount)).div(1 ether);\n    balances[_token][feeCollector].available = balances[_token][feeCollector].available.add(fee);\n    if (_token == 0) {\n      require(msg.sender.send(_amount.sub(fee)));\n    } else {\n      require(ERC20(_token).transfer(msg.sender, _amount.sub(fee)));\n    }\n    emit Withdraw(_token, msg.sender, _amount, balances[_token][msg.sender].available);\n\t}\n\n\tfunction getBalance(address _token, address _user) public view returns(uint available, uint reserved) {\n\t\tavailable = balances[_token][_user].available;\n    reserved = balances[_token][_user].reserved;\n\t}\n\n\tfunction createOrder(address _marketAddress, uint _amount, uint _price, bool _sell) public {\n\t\trequire(_marketAddress != 0);\n\n\t\tMarket storage market = markets[_marketAddress];\n\t\tOrder memory order;\n\t\torder.user = msg.sender;\n\t\torder.amount = _amount;\n\t\torder.price = _price;\n\t\torder.sell = _sell;\n\t\torder.timestamp = now;\n\n\t\tuint64 orderId = ++lastId;\n\n\t\tif (order.sell) {\n\t\t\tbalances[_marketAddress][msg.sender].available = balances[_marketAddress][msg.sender].available.sub(_amount);\n\t\t\tbalances[_marketAddress][msg.sender].reserved = balances[_marketAddress][msg.sender].reserved.add(_amount);\n\t\t\tmatchBuyOrders(_marketAddress, market, order, orderId);\n\t\t} else {\n\t\t\tuint etherAmount = (_price.mul(_amount)).div(1 ether);\n\t\t\tbalances[0][msg.sender].available = balances[0][msg.sender].available.sub(etherAmount);\n\t\t\tbalances[0][msg.sender].reserved = balances[0][msg.sender].reserved.add(etherAmount);\n\t\t\tmatchSellOrders(_marketAddress, market, order, orderId);\n\t\t}\n\n\t\tuint64 parentId = market.priceTree.find(order.price);\n\t\tOrder storage parent = market.orderbook[parentId];\n\t\tOrder storage parentPrev = market.orderbook[parent.prev];\n\t\tOrder storage parentNext = market.orderbook[parent.next];\n\n\t\tif (order.amount != 0) {\n\t\t\tif (parentId != 0) {\n\t\t\t\tif (_price >= parent.price) {\n\t\t\t\t\torder.next = parent.next;\n\t\t\t\t\torder.prev = parentId;\n\t\t\t\t\tparent.next = orderId;\n\t\t\t\t\tparentNext.prev = orderId;\n\t\t\t\t} else {\n\t\t\t\t\torder.next = parentId;\n\t\t\t\t\torder.prev = parent.prev;\n\t\t\t\t\tparent.prev = orderId;\n\t\t\t\t\tparentPrev.next = orderId;\n\t\t\t\t}\n\t\t\t} else {\n\t\t\t\torder.next = 0;\n\t\t\t\torder.prev = 0;\n\t\t\t}\n\n\t\t\tif ((order.sell && market.bid == 0) || (order.sell && order.price < market.orderbook[market.bid].price)) {\n\t\t\t\tmarket.bid = orderId;\n\t\t\t\temit Bid(_marketAddress, _price);\n\t\t\t}\n\n\t\t\tif ((!order.sell && market.ask == 0) || (!order.sell && order.price > market.orderbook[market.ask].price)) {\n\t\t\t\tmarket.ask = orderId;\n\t\t\t\temit Ask(_marketAddress, _price);\n\t\t\t}\n\n\t\t\tmarket.priceTree.placeAfter(parentId, orderId, order.price);\n\t\t\tmarket.orderbook[orderId] = order;\n\t\t\temit NewOrder(msg.sender, _marketAddress, orderId, order.price, order.amount, now, order.sell);\n\t\t}\n\t}\n\n\tfunction matchSellOrders(address _marketAddress, Market storage market, Order memory order, uint64 orderId) private {\n\t\tuint64 matchedId = market.bid;\n\n\t\twhile (matchedId != 0 && order.amount != 0 && order.price >= market.orderbook[matchedId].price) {\n\t\t\tOrder storage matchedOrder = market.orderbook[matchedId];\n\n\t\t\tuint tradeAmountInTokens;\n\t\t\tif (order.amount >= matchedOrder.amount) {\n\t\t\t\ttradeAmountInTokens = matchedOrder.amount;\n\t\t\t} else {\n\t\t\t\ttradeAmountInTokens = order.amount;\n\t\t\t}\n\t\t\tuint tradeAmountInEther = (tradeAmountInTokens.mul(matchedOrder.price)).div(1 ether);\n\t\t\tuint overpaid = ((tradeAmountInTokens.mul(order.price)).div(1 ether)).sub(tradeAmountInEther);\n\t\t\torder.amount = order.amount.sub(tradeAmountInTokens);\n\t\t\tmatchedOrder.amount = matchedOrder.amount.sub(tradeAmountInTokens);\n\n\t\t\ttrade(_marketAddress, 0, matchedOrder.user, order.user, tradeAmountInTokens, tradeAmountInEther, overpaid);\n\n\t\t\temit Trade(_marketAddress, orderId, matchedId, matchedOrder.price, tradeAmountInTokens, now, order.sell);\n\n\t\t\tif (matchedOrder.amount != 0) {\n\t\t\t\tbreak;\n\t\t\t}\n\n\t\t\tOrder memory removed = remove(_marketAddress, matchedId);\n\t\t\tmatchedId = removed.next;\n\t\t}\n\t}\n\n\tfunction matchBuyOrders(address _marketAddress, Market storage market, Order memory order, uint64 orderId) private {\n\t\tuint64 matchedId = market.ask;\n\n\t\twhile (matchedId != 0 && order.amount != 0 && order.price <= market.orderbook[matchedId].price) {\n\t\t\tOrder storage matchedOrder = market.orderbook[matchedId];\n\n\t\t\tuint tradeAmountInTokens;\n\t\t\tif (order.amount >= matchedOrder.amount) {\n\t\t\t\ttradeAmountInTokens = matchedOrder.amount;\n\t\t\t} else {\n\t\t\t\ttradeAmountInTokens = order.amount;\n\t\t\t}\n\t\t\tuint tradeAmountInEther = (tradeAmountInTokens.mul(matchedOrder.price)).div(1 ether);\n\t\t\torder.amount = order.amount.sub(tradeAmountInTokens);\n\t\t\tmatchedOrder.amount = matchedOrder.amount.sub(tradeAmountInTokens);\n\n\t\t\ttrade(0, _marketAddress, matchedOrder.user, order.user, tradeAmountInEther, tradeAmountInTokens, 0);\n\n\t\t\temit Trade(_marketAddress, orderId, matchedId, matchedOrder.price, tradeAmountInTokens, now, order.sell);\n\n\t\t\tif (matchedOrder.amount != 0) {\n\t\t\t\tbreak;\n\t\t\t}\n\n\t\t\tOrder memory removed = remove(_marketAddress, matchedId);\n\t\t\tmatchedId = removed.prev;\n\t\t}\n\t}\n\n\tfunction trade(address token1, address token2, address user1, address user2, uint amount1, uint amount2, uint overpaid) private {\n\t\tuint makerFee = (fees[uint(Fee.Maker)].mul(amount2)).div(1 ether);\n\t\tuint takerFee = (fees[uint(Fee.Taker)].mul(amount1)).div(1 ether);\n\t\tbalances[token1][user1].reserved = balances[token1][user1].reserved.sub(amount1);\n\t\tbalances[token2][user1].available = balances[token2][user1].available.add(amount2.sub(makerFee));\n\t\tbalances[token2][user2].reserved = balances[token2][user2].reserved.sub(amount2).sub(overpaid);\n\t\tbalances[token1][user2].available = balances[token1][user2].available.add(amount1.sub(takerFee));\n\t\tbalances[token2][user2].available = balances[token2][user2].available.add(overpaid);\n\t\tbalances[token1][feeCollector].available = balances[token1][feeCollector].available.add(takerFee);\n\t\tbalances[token2][feeCollector].available = balances[token2][feeCollector].available.add(makerFee);\n\t}\n\n\tfunction cancelOrder(address _marketAddress, uint64 _orderId) public {\n\t\trequire(_marketAddress != 0);\n\t\tMarket storage market = markets[_marketAddress];\n\t\tOrder storage order = market.orderbook[_orderId];\n\t\trequire(order.user == msg.sender);\n\n\t\tif (order.sell) {\n\t\t\tbalances[_marketAddress][msg.sender].available = balances[_marketAddress][msg.sender].available.add(order.amount);\n\t\t\tbalances[_marketAddress][msg.sender].reserved = balances[_marketAddress][msg.sender].reserved.sub(order.amount);\n\t\t} else {\n\t\t\tuint etherAmount = (order.price.mul(order.amount)).div(1 ether);\n\t\t\tbalances[0][msg.sender].available = balances[0][msg.sender].available.add(etherAmount);\n\t\t\tbalances[0][msg.sender].reserved = balances[0][msg.sender].reserved.sub(etherAmount);\n\t\t}\n\n\t\tremove(_marketAddress, _orderId);\n\t}\n\n\tfunction remove(address _marketAddress, uint64 _orderId) private returns (Order) {\n\t\tMarket storage market = markets[_marketAddress];\n\t\tOrder memory order = market.orderbook[_orderId];\n\t\tif (market.ask == _orderId) {\n\t    market.ask = order.prev;\n\t    emit Ask(_marketAddress, market.orderbook[order.prev].price);\n\t\t}\n\t\tif (market.bid == _orderId) {\n\t    market.bid = order.next;\n\t    emit Bid(_marketAddress, market.orderbook[order.next].price);\n\t\t}\n\t\tmarket.orderbook[order.next].prev = order.prev;\n\t\tmarket.orderbook[order.prev].next = order.next;\t\t\n\t\tmarket.priceTree.remove(_orderId);\n\t\tdelete market.orderbook[_orderId];\n\t\treturn order;\n\t}\n\n\tfunction getOrder(address _marketAddress, uint64 _orderId) public view returns (address user, uint amount, uint price, uint64 next, uint64 prev, bool sell) {\n\t\trequire(_marketAddress != 0);\n\t\tOrder memory order = markets[_marketAddress].orderbook[_orderId];\n\t\tuser = order.user;\n\t\tamount = order.amount;\n\t\tprice = order.price;\n\t\tnext = order.next;\n\t\tprev = order.prev;\n\t\tsell = order.sell;\n\t}\n\n\tfunction getMarketInfo(address _marketAddress) public view returns (uint64 bid, uint64 ask) {\n\t\trequire(_marketAddress != 0);\n\t\tMarket memory market = markets[_marketAddress];\n\t\tbid = market.bid;\n\t\task = market.ask;\n\t}\n}\n\n",
  "sourcePath": "/Users/hieu/dev/odin-contracts/contracts/ExchangePure.sol",
  "compiler": {
    "name": "solc",
    "version": "0.4.24+commit.e67f0147.Emscripten.clang"
  },
  "schemaVersion": "2.0.1",
  "updatedAt": "2018-09-03T17:49:20.686Z"
}